{
  "contractName": "ContractValidator",
  "abi": [
    {
      "inputs": [
        {
          "internalType": "address",
          "name": "account",
          "type": "address"
        }
      ],
      "name": "check165IsAlready",
      "outputs": [
        {
          "internalType": "bool",
          "name": "",
          "type": "bool"
        }
      ],
      "stateMutability": "view",
      "type": "function",
      "constant": true
    }
  ],
  "bytecode": "0x608060405234801561001057600080fd5b50610426806100206000396000f3fe608060405234801561001057600080fd5b506004361061002b5760003560e01c8063c9d86a0e14610030575b600080fd5b61004a6004803603810190610045919061024d565b610060565b6040516100579190610295565b60405180910390f35b600061006b82610072565b9050919050565b600061009e827f01ffc9a7000000000000000000000000000000000000000000000000000000006100bf565b80156100b857506100b68263ffffffff60e01b6100bf565b155b9050919050565b6000806301ffc9a760e01b836040516024016100db91906102eb565b604051602081830303815290604052907bffffffffffffffffffffffffffffffffffffffffffffffffffffffff19166020820180517bffffffffffffffffffffffffffffffffffffffffffffffffffffffff838183161783525050505090506000808573ffffffffffffffffffffffffffffffffffffffff16617530846040516101659190610380565b6000604051808303818686fa925050503d80600081146101a1576040519150601f19603f3d011682016040523d82523d6000602084013e6101a6565b606091505b50915091506020815110156101c157600093505050506101e4565b8180156101de5750808060200190518101906101dd91906103c3565b5b93505050505b92915050565b600080fd5b600073ffffffffffffffffffffffffffffffffffffffff82169050919050565b600061021a826101ef565b9050919050565b61022a8161020f565b811461023557600080fd5b50565b60008135905061024781610221565b92915050565b600060208284031215610263576102626101ea565b5b600061027184828501610238565b91505092915050565b60008115159050919050565b61028f8161027a565b82525050565b60006020820190506102aa6000830184610286565b92915050565b60007fffffffff0000000000000000000000000000000000000000000000000000000082169050919050565b6102e5816102b0565b82525050565b600060208201905061030060008301846102dc565b92915050565b600081519050919050565b600081905092915050565b60005b8381101561033a57808201518184015260208101905061031f565b83811115610349576000848401525b50505050565b600061035a82610306565b6103648185610311565b935061037481856020860161031c565b80840191505092915050565b600061038c828461034f565b915081905092915050565b6103a08161027a565b81146103ab57600080fd5b50565b6000815190506103bd81610397565b92915050565b6000602082840312156103d9576103d86101ea565b5b60006103e7848285016103ae565b9150509291505056fea26469706673582212208f9d2bcf12a8b988ff0a89e42b3459c9e251508f478564bf449807b67b51e7ef64736f6c634300080e0033",
  "immutableReferences": {},
  "source": "pragma solidity >=0.4.22 <0.9.0;\r\n\r\nimport \"@openzeppelin/contracts/token/ERC721/extensions/ERC721Enumerable.sol\";\r\nimport \"@openzeppelin/contracts/token/ERC1155/extensions/ERC1155Supply.sol\";\r\nimport \"@openzeppelin/contracts/utils/introspection/ERC165Checker.sol\";\r\n\r\n// interface ERC721Partial {}\r\n// interface ERC1155Partial {\r\n//   function supportsInterface(bytes4 interfaceID) external view returns (bool);\r\n// }\r\n\r\ncontract ContractValidator{\r\n  function check165IsAlready(address account)external view returns(bool) {\r\n\r\n   return ERC165Checker.supportsERC165(account);\r\n  }\r\n\r\n}\r\n",
  "sourcePath": "C:\\Users\\CJS\\Desktop\\contract-validator\\contracts\\ContractValidator.sol",
  "compiler": {
    "name": "solc",
    "version": "0.8.14+commit.80d49f37.Emscripten.clang"
  },
  "schemaVersion": "3.4.7",
  "updatedAt": "2022-07-12T09:49:25.333Z",
  "networkType": "ethereum",
  "devdoc": {
    "kind": "dev",
    "methods": {},
    "version": 1
  },
  "userdoc": {
    "kind": "user",
    "methods": {},
    "version": 1
  }
}